:020000040000fa
:080000000002040000000000f2
:020000040000fa
:040008003c050000b3
:020000040000fa
:04000c003c050000af
:020000040000fa
:040010003c050000ab
:020000040000fa
:040014003c050000a7
:020000040000fa
:040018003c050000a3
:020000040000fa
:04001c003c0500009f
:020000040000fa
:040020003c0500009b
:020000040000fa
:040024003c05000097
:020000040000fa
:040028003c05000093
:020000040000fa
:04002c00c404000008
:020000040000fa
:040030003c0500008b
:020000040000fa
:040034003c05000087
:020000040000fa
:040038003c05000083
:020000040000fa
:04003c003c0500007f
:020000040000fa
:040040003c0500007b
:020000040000fa
:04004400de040000d6
:020000040000fa
:040048003c05000073
:020000040000fa
:04004c003c0500006f
:020000040000fa
:040050003c0500006b
:020000040000fa
:040054003c05000067
:020000040000fa
:040058003c05000063
:020000040000fa
:04005c003c0500005f
:020000040000fa
:040060003c0500005b
:020000040000fa
:040064003c05000057
:020000040000fa
:040068003c05000053
:020000040000fa
:04006c003c0500004f
:020000040000fa
:040070003c0500004b
:020000040000fa
:040074003c05000047
:020000040000fa
:040078003c05000043
:020000040000fa
:04007c003c0500003f
:020000040000fa
:040080003c0500003b
:020000040000fa
:040084003c05000037
:020000040000fa
:04008800fa02000078
:020000040000fa
:04008c003c0500002f
:020000040000fa
:040090003c0500002b
:020000040000fa
:040094003c05000027
:020000040000fa
:040098003c05000023
:020000040000fa
:04009c003c0500001f
:020000040000fa
:0400a0003c0500001b
:020000040000fa
:0400a4003c05000017
:020000040000fa
:0400a8003c05000013
:020000040000fa
:0400ac003c0500000f
:020000040000fa
:0400b0003c0500000b
:020000040000fa
:0400b4005a040000ea
:020000040000fa
:0400b8008e040000b2
:020000040000fa
:0400bc003c050000ff
:020000040000fa
:0400c0003c050000fb
:020000040000fa
:0400c4003c050000f7
:020000040000fa
:0400c8003c050000f3
:020000040000fa
:0400cc003c050000ef
:020000040000fa
:0400d0003c050000eb
:020000040000fa
:0400d4003c050000e7
:020000040000fa
:0400d8003c050000e3
:020000040000fa
:0400dc003c050000df
:020000040000fa
:0400e0003c050000db
:020000040000fa
:0400e4003c050000d7
:020000040000fa
:0400e8003c050000d3
:020000040000fa
:0400ec003c050000cf
:020000040000fa
:0400f0003c050000cb
:020000040000fa
:0400f4003c050000c7
:020000040000fa
:0400f8003c050000c3
:020000040000fa
:0400fc003c050000bf
:020000040000fa
:040100003c050000ba
:020000040000fa
:040104003c050000b6
:020000040000fa
:040108003c050000b2
:020000040000fa
:04010c003c050000ae
:020000040000fa
:040110003c050000aa
:020000040000fa
:040114003c050000a6
:020000040000fa
:040118003c050000a2
:020000040000fa
:04011c003c0500009e
:020000040000fa
:040120003c0500009a
:020000040000fa
:040124003c05000096
:020000040000fa
:040128003c05000092
:020000040000fa
:04012c003c0500008e
:020000040000fa
:040130003c0500008a
:020000040000fa
:040134003c05000086
:020000040000fa
:040138003c05000082
:020000040000fa
:04013c003c0500007e
:020000040000fa
:040140003c0500007a
:020000040000fa
:040144003c05000076
:020000040000fa
:040148003c05000072
:020000040000fa
:04014c003c0500006e
:020000040000fa
:040150003c0500006a
:020000040000fa
:040154003c05000066
:020000040000fa
:040158003c05000062
:020000040000fa
:04015c003c0500005e
:020000040000fa
:040160003c0500005a
:020000040000fa
:040164003c05000056
:020000040000fa
:040168003c05000052
:020000040000fa
:04016c003c0500004e
:020000040000fa
:040170003c0500004a
:020000040000fa
:040174003c05000046
:020000040000fa
:040178003c05000042
:020000040000fa
:04017c003c0500003e
:020000040000fa
:040180003c0500003a
:020000040000fa
:040184003c05000036
:020000040000fa
:040188003c05000032
:020000040000fa
:04018c003c0500002e
:020000040000fa
:040190003c0500002a
:020000040000fa
:040194000a0300005a
:020000040000fa
:04019800260300003a
:020000040000fa
:04019c00420300001a
:020000040000fa
:0401a0005e030000fa
:020000040000fa
:0401a4007a030000da
:020000040000fa
:0401a80096030000ba
:020000040000fa
:0401ac00b20300009a
:020000040000fa
:0401b000ce0300007a
:020000040000fa
:0401b400ea0300005a
:020000040000fa
:0401b8000604000039
:020000040000fa
:0401bc002204000019
:020000040000fa
:0401c0003e040000f9
:020000040000fa
:0401c4003c050000f6
:020000040000fa
:0401c8003c050000f2
:020000040000fa
:0401cc003c050000ee
:020000040000fa
:0401d0003c050000ea
:020000040000fa
:0401d4003c050000e6
:020000040000fa
:0401d8003c050000e2
:020000040000fa
:0401dc003c050000de
:020000040000fa
:0401e0003c050000da
:020000040000fa
:0401e4003c050000d6
:020000040000fa
:0401e8003c050000d2
:020000040000fa
:0401ec003c050000ce
:020000040000fa
:0401f0003c050000ca
:020000040000fa
:0401f4003c050000c6
:020000040000fa
:0401f8003c050000c2
:020000040000fa
:0401fc003c050000be
:020000040000fa
:040200003c050000b9
:020000040000fa
:040204003c050000b5
:020000040000fa
:040208003c050000b1
:020000040000fa
:04020c003c050000ad
:020000040000fa
:040210003c050000a9
:020000040000fa
:040214003c050000a5
:020000040000fa
:040218003c050000a1
:020000040000fa
:04021c003c0500009d
:020000040000fa
:040220003c05000099
:020000040000fa
:040224003c05000095
:020000040000fa
:040228003c05000091
:020000040000fa
:04022c003c0500008d
:020000040000fa
:040230003c05000089
:020000040000fa
:040234003c05000085
:020000040000fa
:040238003c05000081
:020000040000fa
:04023c003c0500007d
:020000040000fa
:040240003c05000079
:020000040000fa
:040244003c05000075
:020000040000fa
:040248003c05000071
:020000040000fa
:04024c003c0500006d
:020000040000fa
:040250003c05000069
:020000040000fa
:040254003c05000065
:020000040000fa
:040258003c05000061
:020000040000fa
:04025c003c0500005d
:020000040000fa
:040260003c05000059
:020000040000fa
:040264003c05000055
:020000040000fa
:040268003c05000051
:020000040000fa
:04026c003c0500004d
:020000040000fa
:040270003c05000049
:020000040000fa
:040274003c05000045
:020000040000fa
:040278003c05000041
:020000040000fa
:04027c003c0500003d
:020000040000fa
:040280003c05000039
:020000040000fa
:040284003c05000035
:020000040000fa
:040288003c05000031
:020000040000fa
:04028c003c0500002d
:020000040000fa
:040290003c05000029
:020000040000fa
:040294003c05000025
:020000040000fa
:040298003c05000021
:020000040000fa
:04029c003c0500001d
:020000040000fa
:0402a0003c05000019
:020000040000fa
:0402a4003c05000015
:020000040000fa
:0402a8003c05000011
:020000040000fa
:0402ac003c0500000d
:020000040000fa
:0402b0003c05000009
:020000040000fa
:0402b4003c05000005
:020000040000fa
:0402b8003c05000001
:020000040000fa
:0402bc003c050000fd
:020000040000fa
:0402c0003c050000f9
:020000040000fa
:0402c4003c050000f5
:020000040000fa
:0402c8003c050000f1
:020000040000fa
:0402cc003c050000ed
:020000040000fa
:0402d0003c050000e9
:020000040000fa
:0402d4003c050000e5
:020000040000fa
:0402d8003c050000e1
:020000040000fa
:0402dc003c050000dd
:020000040000fa
:0402e0003c050000d9
:020000040000fa
:0402e4003c050000d5
:020000040000fa
:0402e8003c050000d1
:020000040000fa
:0402ec003c050000cd
:020000040000fa
:0402f0003c050000c9
:020000040000fa
:0402f4003c050000c5
:020000040000fa
:0402f8003c050000c1
:020000040000fa
:0402fc003c050000bd
:020000040000fa
:040300003c050000b8
:020000040000fa
:040304003c050000b4
:020000040000fa
:040308003c050000b0
:020000040000fa
:04030c003c050000ac
:020000040000fa
:040310003c050000a8
:020000040000fa
:040314003c050000a4
:020000040000fa
:040318003c050000a0
:020000040000fa
:04031c003c0500009c
:020000040000fa
:040320003c05000098
:020000040000fa
:040324003c05000094
:020000040000fa
:040328003c05000090
:020000040000fa
:04032c003c0500008c
:020000040000fa
:100400000f0321000eff26000e01880000000000ef
:10041000000020000000e000020032000001200087
:100420002002880014000700950107000000e0008a
:1004300003003a000099210001002000020037006b
:100440000000200001002000810f70000100320038
:100450000f000700000020000000e0000200320052
:1004600000000200000000004c1902000000000023
:100470000040da000000fe00200020000000e00044
:1004800002003200100020009001880000000600e9
:10049000a1028800800478000000eb001f003700f4
:1004a000e284440054a0b4009905ba00e2844400f8
:1004b00054a0b4009906ba00e284440054a0b400e9
:1004c0000006eb00476fde00fd07b200ae018800ba
:1004d000636ce10003003a000ad801000000eb0061
:1004e0000e003700606ce10008003a00004deb00a0
:1004f0000a05e800020039003420ec000af0a000f0
:100500008b05e900f9ff3e00040037006168e10057
:10051000010032000086eb000b00070019c7ba008b
:100520001905ba000e04e00003003a000a00e000da
:10053000dbff3a0000000600fe07b200ae028800b2
:100540008a047800f5ff37000cd0a300e20f4d00bd
:100550001c00390089027800354dba000a05e80010
:10056000020039003420ec000af0a0008b05e900fd
:100570000f003200254dba000a05e80002003900dc
:100580003420ec000af0a0008b05e90008003200de
:100590000c00e0000600320015cdba000a05e800a4
:1005a000020039003420ec000af0a0008b05e900bd
:1005b0008984e80054a0b4000b00e000e2ff3a0098
:1005c000000006009902ba00055d78008b05e9007d
:1005d000f7ff3200c82ade00055d78008b05e900d0
:1005e000f3ff32000c00e000f1ff320019ddba0029
:1005f000eeff3700801f78000000fa0010c0b30043
:100600000af0b7000308a9000080fa004f00780044
:10061000004006003200f8003400f800881f78001f
:1006200018002000a8018800180020009801880008
:100630004f0478000000fa000b68a9000080fa005f
:100640003400f9003200f900004006003200f800e2
:100650003400f800881f780018002000a8018800e6
:1006600018002000980188004f0478000000fa006c
:100670000b88a9000080fa003400f9003200f9006c
:10068000004006003200f8003400f800881f7800af
:1006900018002000a8018800180020009801880098
:1006a0004f0478000000fa000ba8a9000080fa00af
:1006b0003400f9003200f900004006003200f80072
:1006c0003400f800881f780018002000a801880076
:1006d00018002000980188004f0478000000fa00fc
:1006e0000bc8a9000080fa003400f9003200f900bc
:1006f000004006003200f8003400f800881f78003f
:1007000018002000a8018800180020009801880027
:100710004f0478000000fa000be8a9000080fa00fe
:100720003400f9003200f900004006003200f80001
:100730003400f800881f780018002000a801880005
:1007400018002000980188004f0478000000fa008b
:100750000c08a9000080fa003400f9003200f9000a
:10076000004006003200f8003400f800881f7800ce
:1007700018002000a80188001800200098018800b7
:100780004f0478000000fa000c28a9000080fa004d
:100790003400f9003200f900004006003200f80091
:1007a0003400f800881f780018002000a801880095
:1007b00018002000980188004f0478000000fa001b
:1007c0000c48a9000080fa003400f9003200f9005a
:1007d000004006003200f8003400f800881f78005e
:1007e00018002000a8018800180020009801880047
:1007f0004f0478000000fa000c68a9000080fa009d
:100800003400f9003200f900004006003200f80020
:100810003400f800881f780018002000a801880024
:1008200018002000980188004f0478000000fa00aa
:100830000c88a9000080fa003400f9003200f900a9
:10084000004006003200f8003400f800881f7800ed
:1008500018002000a80188001800200098018800d6
:100860004f0478000000fa000ca8a9000080fa00ec
:100870003400f9003200f900004006003200f800b0
:100880003400f800881f780018002000a8018800b4
:1008900018002000980188004f0478000000fa003a
:1008a0000cc8a9000080fa003400f9003200f900f9
:1008b00000400600809fbe000000fa0040022100b8
:1008c000104078000080fb00e10f50000300320070
:1008d000e20f5000070032000c003700308180002a
:1008e0008080ea00307080000080600030708800f6
:1008f00006003700308180008080ea00107180009f
:100900000080600010718800000000000468a900e9
:100910000080fa004f00be0000400600809fbe002d
:100920000000fa00a04d80000000e000120032003c
:1009300040022100104078000080fb00e10f5000d1
:1009400003003200e20f5000060032000a003700b8
:1009500031818000307080000100700030708800ac
:1009600005003700318180001071800001007000a7
:1009700010718800000000000488a9000080fa00bf
:100980004f00be0000400600801f78000000fa0003
:10099000708080000000e800708088007080800017
:1009a000e10f400001003a000e30ef000028a900de
:1009b0000080fa004f00780000400600809fbe00d3
:1009c000829fbe00849fbe00869fbe000000fa008a
:1009d000400121003002be002003be0010002000b4
:1009e000010020006011b8000000420081804a0030
:1009f00002014b0083814b0044012100009abe009c
:100a00000292be00908080000000e8009080880084
:100a100091808000703e2000808f50000f003600d3
:100a2000c00121003002be002003be0010002000e3
:100a3000010020006011b8000000420081804a00df
:100a400002014b0083814b00c4012100009abe00cb
:100a50000292be000000eb009080880000e8a90030
:100a60000080fa004f03be004f02be004f01be00df
:100a70004f00be00004006000040da000000fe000b
:100a8000000005000001be00210007000470a7005f
:100a900003f0a1006509b100160032000d00350019
:100aa0006828e10006003500f0ff2f00f1ff270065
:100ab0000300e00013003b000100280000000500d7
:100ac00000004000818048008502e900fcff3a00f8
:100ad00008003700f88f420002003c008000eb0065
:100ae000000005008100d1000080d3008502e800ed
:100af000fcff3a000300e00002003b006000100031
:100b0000e0801800000006006011b80049003700be
:100b1000c70ade00f107b200f50fb200080032008c
:100b2000e1cf4200020032000170a0002400050065
:100b3000810f700001003200040805004400050028
:100b4000810f700002003a00140005008502e900e0
:100b50000000400081c04800fcff3b000170a00085
:100b600024000500889fbe008a9fbe008c1f78006d
:100b7000850007008c00330003866c006450e100a0
:100b8000240032006420e100270032006150e100bf
:100b9000220032006120e100210032008b854200fa
:100ba000eb07b1000134b800003ab8000804420075
:100bb00089844a00013ab8000030b80088804000bb
:100bc00009014a0004003300000040008180480011
:100bd000020149008b05e900c909dd0083017000ad
:100be0000100320013002000c814de004814dd00ac
:100bf0004709de001200b200c808de000884700059
:100c00003b00070001f0a1000cf0a70001f0a000dc
:100c10006e0037006120e100700032000801be0064
:100c20000200be00f7ff37006150e100fcff3a0010
:100c30006a003700889fbe008a9fbe000082700055
:100c40000402710004827100260032000004be001c
:100c50000200be006011b8006b0920009502200060
:100c60000182cf000a0039000541b1000082cf00a7
:100c7000070039000541b1000982cf0004003900a6
:100c80000541b1000882cf00010039000541b100e3
:100c900005425200120032000a003b0082817100be
:100ca000610164008100d1000080d3008984d300f9
:100cb0000884d3008b05e8000442e800f7ff3a00ff
:100cc000070037000804440089844c0000004800f5
:100cd000818048008b05e9000442e900f9ff3a00f1
:100ce000030007004f05be004f04be0000000600d1
:100cf00081002000618055000b003d000b002000aa
:100d000061fe2f000100e1001d00340082817100ae
:100d1000610164008904d1000884d3000000e80068
:100d2000faff3a00710020006100640003007000c7
:100d3000020060000900320061044400e0844c00bd
:100d40000988a500050032008b05e8006808e1006d
:100d500002003a008904d1000884d300f20f200079
:100d60000258e10005003d00c75ddd00f907b20053
:100d70008980750008007800000006000bf8270045
:100d80008b007800000005000004be0060ff070033
:100d90000003be000405be000200be005cff0700a9
:100da000844f7500000006000200be006450e100a0
:100db000050036006420e100020036000968a30047
:100dc00001003a000800be000160a0004f06780054
:100dd0004f05be004f04be0000000600f0ff2f00cc
:080de000f1ff2700f9ff3700c5
:020000040000fa
:100de8000000fa0001eba8000080fa0000000600ed
:100df8000000fa0001eba9000080fa0000000600dc
:100e08000000fa0051428000f0ff280000806000d6
:100e180000c0a000504288006142800080ff2f007f
:100e2800008060000000a000604288007429ef0084
:100e38007629ef007829ef007a29ef007e29ef0064
:100e48008029ef008429ef008629ef00301f200059
:100e5800404c88008a29ef008c29ef009029ef0088
:100e68009429ef009629ef00020007000080fa009d
:100e7800000006000000fa000a70ef0002e8a9006e
:100e88000308a90022e8a8002308a80075e9a8001b
:100e98000080fa00000006000000fa0075e9a900c9
:100ea8000080fa00000006000200fa00000f780037
:100eb8001e007800f900b90060808800f6ff07007e
:100ec800608080000000e900404c8800e9ff0700ce
:100ed8000080fa00000006000000fa000ad0bf00f7
:100ee8000004e000030032000a70ef0010c0b300f5
:100ef800010037000040eb000080fa000000060007
:100f08000000fa00002bef000006200010588800af
:100f1800042bef00062bef00082bef000000240045
:100f2800505888000c2bef000e2bef00102bef0011
:100f3800122bef00162bef000080eb000059880001
:100f48000080eb00105988006a2bef006e2bef0031
:100f5800722bef00762bef00d02bef00d22bef0097
:100f6800d42bef00d82bef0000302000b05e8800b3
:100f780000302000d05e8800f02bef00f22bef004d
:100f8800022cef001160800000f0200001007000ca
:100f98001060880010102000005c880010102000ed
:100fa800105c880010102000205c880010102000c1
:100fb800305c880010102000405c88001010200071
:100fc800505c8800982bef00e002210011c0b300ac
:100fd800014878000080fa00000006000000fa00ce
:100fe800000ca80000000000016080000010200034
:100ff800008060000000e000fbff32000a0ba80040
:101008000080fa00000006000000fa00000ca900a9
:101018000a0ba9000080fa00000006000000fa0090
:10102800002ca800000000000160800000202000c3
:10103800008060000000e000fbff32000a2ba800df
:101048000080fa00000006000000fa00002ca90049
:101058000a2ba9000080fa00000006000000fa0030
:1010680000eca800000000000160800000002800db
:10107800008060000000e000fbff32000aeba800df
:101088000080fa00000006000000fa0000eca90049
:101098000aeba9000080fa00000006000200fa002e
:1010a800004f78001e80fb006101b9000080eb0052
:1010b8008080eb000200400083804800b2002000de
:1010c80003002000820f5000838f58002a003e0042
:1010d800000601000b0037000c0037000d00370038
:1010e8000e003700140037001500370016003700cf
:1010f8001700370018003700190037001a003700aa
:101108001b003700606080001f003700706080009f
:101118001d003700806080001b003700416480009c
:1011280000202000008060000000e00014003a0069
:101138009060800014003700a06080001200370023
:10114800b060800010003700c06080000e003700db
:10115800d06080000c003700e06080000a00370093
:10116800f06080000800370000618000060037004a
:101178001061800004003700000000000100370003
:10118800000000000000eb000080fa0000000600ec
:101198000200fa00004f78001e80fb006101b900d0
:1011a8000080eb008080eb00020040008380480054
:1011b800b200200003002000820f5000838f5800e7
:1011c8008a003e00000601000b00370014003700bb
:1011d8001d00370026003700340037003d00370077
:1011e800460037004f0037005800370061003700cd
:1011f8006a003700730037008059800000800a00b9
:10120800000000000080fb0000f0a7000000ea00da
:101218000000ea004f00de00004078007700370049
:101228008059800011800a00000000000080fb0047
:1012380000f0a7000000ea000000ea004f00de000e
:10124800004078006d0037008059800022800a0035
:10125800000000000080fb0000f0a7000000ea008a
:101268000000ea004f00de0000407800630037000d
:101278004164800000202000008060000000e00041
:101288005c003a008059800033800a0000000000aa
:101298000080fb0000f0a7000000ea000000ea0060
:1012a8004f00de000040780054003700805980006d
:1012b80044800a00000000000080fb0000f0a70046
:1012c8000000ea000000ea004f00de00004078005d
:1012d8004a0037008059800055800a00000000004d
:1012e8000080fb0000f0a7000000ea000000ea0010
:1012f8004f00de0000407800400037008059800031
:1013080066800a00000000000080fb0000f0a700d3
:101318000000ea000000ea004f00de00004078000c
:10132800360037008059800077800a0000000000ee
:101338000080fb0000f0a7000000ea000000ea00bf
:101348004f00de00004078002c00370080598000f4
:1013580088800a00000000000080fb0000f0a70061
:101368000000ea000000ea004f00de0000407800bc
:10137800220037008059800099800a000000000090
:101388000080fb0000f0a7000000ea000000ea006f
:101398004f00de00004078001800370080598000b8
:1013a800aa800a00000000000080fb0000f0a700ef
:1013b8000000ea000000ea004f00de00004078006c
:1013c8000e00370080598000bb800a000000000032
:1013d8000080fb0000f0a7000000ea000000ea001f
:1013e8004f00de00004078000400370000000000d5
:1013f80001003700000000000040eb000080fa0008
:10140800000006000200fa00004f7800114798001b
:101418001e80fb006101b9000080eb008080eb00ba
:101428000200400083804800b20020000300200032
:10143800820f5000838f580088003e00000601008c
:101448000b003700140037001d0037002600370056
:10145800340037003c003700440037004d003700a7
:10146800560037005f00370068003700710037000a
:101478000b68a9001e4090000080fb00610060001e
:101488004b00dd005141800001b0a1000100700057
:1014980050418800740037000b88a9001e40900056
:1014a8000080fb00610060004c00dd0051418000bd
:1014b80001c0a10001007000504188006a00370097
:1014c8000ba8a9001e4090000080fb00610060008e
:1014d8004d00dd005141800001d0a10001007000e5
:1014e80050418800600037004164800000202000df
:1014f800008060000000e0005a003a000bc8a90014
:101508001e4090000080fb00610060004e00dd007e
:101518005141800001e0a1000100700050418800a5
:10152800510037000be8a9001e4090000080fb0026
:101538004f00dd005141800001f0a1000100700062
:1015480050418800480037000c08a9001e40900050
:101558000080fb0061006000614180000100a10083
:1015680001007000604188003f0037000c28a90086
:101578001e4090000080fb006100600000004000f9
:10158800614180000110a1000100700060418800e5
:10159800350037000c48a9001e4090000080fb0071
:1015a800610060004200dd00614180000120a1006f
:1015b80001007000604188002b0037000c68a9000a
:1015c8001e4090000080fb00610060004300dd00c9
:1015d800614180000130a100010070006041880075
:1015e800210037000c88a9001e4090000080fb00f5
:1015f800610060004400dd00614180000140a100fd
:101608000100700060418800170037000ca8a9008d
:101618001e4090000080fb00610060004500dd0076
:10162800614180000150a100010070006041880004
:101638000d0037000cc8a9001e4090000080fb0078
:10164800610060004600dd00614180000160a1008a
:1016580001007000604188000300370000000000ae
:1016680001003700000000000080fa0000000600ba
:101678000200fa00004f78001e80fb006101b900eb
:101688000080eb008080eb0002004000838048006f
:10169800b200200003002000820f5000838f580002
:1016a800dc003e00000601000b0037001a0037007e
:1016b80029003700390037004e0037005e00370038
:1016c8006e0037007e0037008e0037009e0037001e
:1016d800ae003700be003700020ea800000ea800ba
:1016e80049fe0700c2fd0700e00221001040780013
:1016f8000004a2000004e0000100320000fe070020
:101708008040eb001e4078003eff0700b4fd070054
:1017180032fe0700c20037001e4ea8001c4ea8006b
:1017280049fe0700b2fd0700e002210010407800e2
:101738000004a2000004e00001003200f0fd0700f0
:101748008040eb001e4078002eff0700a4fd070034
:1017580032fe0700b20037001eeea8001ceea800fb
:1017680049fe0700a2fd0700e002210010407800b2
:101778000004a2000004e00001003200e0fd0700c0
:10178800092ba8008040eb001e4078001dff0700d1
:1017980093fd070031fe0700a10037004164800077
:1017a80000202000008060000000e0009b003a005c
:1017b800026ea800006ea80033fe07008cfd07002b
:1017c800e0022100104078000004a2000004e000bc
:1017d80001003200cafd0700092ba8008040eb0079
:1017e8001e40780007ff07007dfd07001bfe07006d
:1017f8008b003700028ea800008ea80022fe07008a
:101808007bfd0700e0022100104078000004a200e0
:101818000004e00001003200b9fd0700092ba80010
:101828008040eb001e407800f6fe07006cfd0700c4
:101838000afe07007a0037001e0ea8001c0ea8003a
:1018480011fe07006afd0700e00221001040780041
:101858000004a2000004e00001003200a8fd070017
:10186800092ba8008040eb001e407800e5fe070029
:101878005bfd0700f9fd0700690037001e2ea80070
:101888001c2ea80000fe070059fd0700e0022100f9
:10189800104078000004a2000004e00001003200bb
:1018a80097fd0700092ba8008040eb001e40780038
:1018b800d4fe07004afd0700e8fd0700580037007e
:1018c8001e4ea8001c4ea800effd070048fd0700ab
:1018d800e0022100104078000004a2000004e000ab
:1018e8000100320086fd0700092ba8008040eb00ac
:1018f8001e407800c3fe070039fd0700d7fd07002a
:10190800470037001e6ea8001c6ea800defd070009
:1019180037fd0700e0022100104078000004a20013
:101928000004e0000100320075fd0700092ba80043
:101938008040eb001e407800b2fe070028fd07003b
:10194800c6fd070036003700024ea800004ea8006a
:10195800cdfd070026fd0700e002210010407800b9
:101968000004a2000004e0000100320064fd07004a
:10197800092ba8008040eb001e407800a1fe07005c
:1019880017fd0700b5fd0700250037001f0ea8004a
:101998001d0ea800bcfd070015fd0700e002210090
:1019a800104078000004a2000004e00001003200aa
:1019b80053fd0700092ba8008040eb001e4078006b
:1019c80090fe070006fd0700a4fd0700140037007d
:1019d8001f2ea8001d2ea800abfd070004fd070060
:1019e800e0022100104078000004a2000004e0009a
:1019f8000100320042fd0700092ba8008040eb00df
:101a08001e4078007ffe0700f5fc070093fd0700e5
:101a1800030037000000000001003700000000004c
:101a28000080fa00000006000200fa00004f78006b
:101a38001e80fb006101b9000080eb008080eb0094
:101a48000200400083804800b2002000030020000c
:101a5800820f5000838f580047013e0000060100a6
:101a68000b0037001f003700330037004c003700e9
:101a78006a003700830037009d003700b700370041
:101a8800d1003700eb003700050137001f01370090
:101a980008cba800f00221008040eb000148780044
:101aa80005003700f0022100104078008040e8006f
:101ab800f002210001487800f0022100104078006f
:101ac800e94f5000f7ff3600000000008059800001
:101ad800610060000000e000fcff320060608000f0
:101ae8002601370008cba800f00221008040eb0057
:101af8000148780005003700f00221001040780006
:101b08008040e800f002210001487800f00221003e
:101b180010407800e94f5000f7ff36000000000041
:101b280080598000620060000000e000fcff320085
:101b380070608000110137004158800000fc2f00c0
:101b4800008060000010a00040588800090ba80021
:101b5800f00221008040eb000148780005003700c2
:101b6800f0022100104078008040e800f0022100d7
:101b780001487800f002210010407800e94f500039
:101b8800f7ff360000000000805980006400600004
:101b98000000e000fcff320080608000f7003700a2
:101ba8004164800000202000008060000000e00008
:101bb8001a003a004158800000fc2f0000806000a5
:101bc8003000b30040588800090ba800f00221003b
:101bd8008040eb000148780005003700f002210042
:101be800104078008040e800f002210001487800a9
:101bf800f002210010407800e94f5000f7ff36004e
:101c08000000000080598000680060000000e000cb
:101c1800fcff320090608000d800370041588000f7
:101c280000fc2f00008060000020a00040588800c1
:101c3800090ba800f00221008040eb000148780061
:101c480005003700f0022100104078008040e800cd
:101c5800f002210001487800f002210010407800cd
:101c6800e94f5000f7ff360000000000805980005f
:101c7800700060000000e000fcff3200a0608000ff
:101c8800be0037004158800000fc2f000080600033
:101c98005000b30040588800090ba800f00221004a
:101ca8008040eb000148780005003700f002210071
:101cb800104078008040e800f002210001487800d8
:101cc800f002210010407800e94f5000f7ff36007d
:101cd80000000000815980000002200000806000a0
:101ce8000000e000fbff3200b0608000a300370076
:101cf8004158800000fc2f00008060006000b300a5
:101d080040588800090ba800f00221008040eb0031
:101d18000148780005003700f002210010407800e3
:101d28008040e800f002210001487800f00221001c
:101d380010407800e94f5000f7ff3600000000001f
:101d48008159800000042000008060000000e0004d
:101d5800fbff3200c06080008800370041588000d7
:101d680000fc2f00008060007000b300405888001d
:101d7800090ba800f00221008040eb000148780020
:101d880005003700f0022100104078008040e8008c
:101d9800f002210001487800f0022100104078008c
:101da800e94f5000f7ff360000000000815980001d
:101db80000082000008060000000e000fbff320007
:101dc800d06080006d0037004158800000fc2f0073
:101dd800008060000030a00040588800090ba8006f
:101de800f00221008040eb00014878000500370030
:101df800f0022100104078008040e800f002210045
:101e080001487800f002210010407800e94f5000a6
:101e1800f7ff360000000000815980000010200004
:101e2800008060000000e000fbff3200e0608000fe
:101e3800520037004158800000fc2f0000806000ed
:101e48009000b30040588800090ba800f002210058
:101e58008040eb000148780005003700f0022100bf
:101e6800104078008040e800f00221000148780026
:101e7800f002210010407800e94f5000f7ff3600cb
:101e880000000000815980000020200000806000d0
:101e98000000e000fbff3200f060800037003700f0
:101ea8004158800000fc2f0000806000a000b300b3
:101eb80040588800090ba800f00221008040eb0080
:101ec8000148780005003700f00221001040780032
:101ed8008040e800f002210001487800f00221006b
:101ee80010407800e94f5000f7ff3600000000006e
:101ef8008159800000402000008060000000e00060
:101f0800fbff3200006180001c0037004158800050
:101f180000fc2f0000806000b000b300405888002b
:101f2800090ba800f00221008040eb00014878006e
:101f380005003700f0022100104078008040e800da
:101f4800f002210001487800f002210010407800da
:101f5800e94f5000f7ff360000000000815980006b
:101f680000802000008060000000e000fbff3200dd
:101f780010618000010037000000eb000080fa00cb
:101f8800000006000000fa00150007000004200009
:101f9800006488005005200020648800a008200004
:101fa800306488008a2cef000020280040648800f4
:101fb800922cef00902cef00942cef008c2cef006b
:101fc8008e2cef00020007000080fa0000000600d7
:101fd8000000fa0081eca8000080fa00000006006a
:101fe8000000fa0081eca9000080fa000000060059
:101ff8000200fa00000f78009e00780071648800e3
:102008000080fa00000006000000fa00892ca800f1
:102018000080fa00000006000000fa00892ca900e0
:102028000080fa00000006000000fa00026ea90015
:10203800d4ff0700f4ff07000080fa000000060044
:102048000000fa003c000700050007001b04070019
:10205800490407006afb07000080fa000000060038
:102068000000fa0010002300307c880040062000a1
:10207800407c88008c2fef0010102000707c8800b6
:1020880040062000807c880020242000507c8800a6
:1020980020242000907c8800b82fef00ba2fef0092
:1020a800be2fef00002def00a02fef00a42fef00b0
:1020b800a62fef00a82fef00aa2fef00ae2fef00fa
:1020c800b02fef00b22fef00120020008007200091
:1020d800a109200053f82000804978008149780040
:1020e8008249780012002000600420007105200059
:1020f80043f82000804978008149780082497800b7
:1021080000000000207c8000610060000000e0000a
:10211800fcff3a0000000000217c80000002200043
:10212800008060000000e000fbff3200b5efa9006e
:102138000080fa00000006000000fa00f00120000c
:10214800107088000080eb00f0708800062eef0009
:10215800222eef000c2eef00282eef000a2eef00a3
:10216800262eef00082eef00242eef00f0012000ad
:1021780000708800f0382000e07088000080fa00c5
:10218800000006000200fa00004f7800114798008e
:102198001e80fb006101b9000080eb008080eb002d
:1021a8000200400083804800420120000300200014
:1021b800820f5000838f580036013e000006010050
:1021c8001400370022003700320037004200370081
:1021d8005200370062003700700037008000370077
:1021e80090003700a0003700b0003700b800370073
:1021f800c0003700d0003700e0003700f00037009b
:10220800f8003700000137000801370010013700d7
:10221800180137001e4090000080fb00610060003c
:10222800117080000100a10001007000107088008a
:102238001e4090000080fb0061006000017080007b
:102248000100a10001007000007088001101370032
:102258001e4090000080fb0061006000000040000c
:10226800117080000110a10001007000107088003a
:102278001e4090000080fb006100600000004000ec
:10228800017080000110a10001007000007088003a
:10229800000137001e4090000080fb0061006000d4
:1022a8004200dd00117080000120a10001007000d3
:1022b800107088001e4090000080fb0061006000e4
:1022c8004200dd00017080000120a10001007000c3
:1022d80000708800ef0037001e4090000080fb006f
:1022e800610060004300dd00117080000130a10032
:1022f80001007000107088001e4090000080fb00f4
:10230800610060004300dd00017080000130a10021
:102318000100700000708800de0037001e40900049
:102328000080fb00610060004400dd001170800047
:102338000140a10001007000107088001e4090004c
:102348000080fb00610060004400dd000170800037
:102358000140a1000100700000708800cd00370026
:102368001e4090000080fb0061006000f17080005a
:102378000100a10001007000f07088001e4090006c
:102388000080fb0061006000e17080000100a10096
:1023980001007000e0708800be0037001e40900009
:1023a8000080fb006100600000004000f1708000c8
:1023b8000110a10001007000f07088001e4090001c
:1023c8000080fb006100600000004000e1708000b8
:1023d8000110a10001007000e0708800ad00370016
:1023e8001e4090000080fb00610060004200dd009c
:1023f800f17080000120a10001007000f0708800d9
:102408001e4090000080fb00610060004200dd007b
:10241800e17080000120a10001007000e0708800d8
:102428009c0037001e4090000080fb0061006000a7
:102438004300dd00f17080000130a1000100700050
:10244800f07088001e4090000080fb006100600072
:102458004300dd00e17080000130a1000100700040
:10246800e07088008b0037001e4090000080fb0061
:10247800610060004400dd00f17080000140a100af
:1024880001007000f07088001e4090000080fb0082
:10249800610060004400dd00e17080000140a1009f
:1024a80001007000e07088007a0037001e4090003c
:1024b8000080fb00610060004500dd00f1708000d5
:1024c8000150a10001007000f07088007100370011
:1024d8001e4090000080fb00610060004600dd00a7
:1024e800f17080000160a10001007000f0708800a8
:1024f800680037001e4090000080fb00610060000b
:102508004700dd00f17080000170a100010070003b
:10251800f07088001e4090000080fb0061006000a1
:102528004700dd00e17080000170a100010070002b
:10253800e0708800570037001e4090000080fb00c4
:10254800610060004800dd00f17080000180a1009a
:1025580001007000f07088001e4090000080fb00b1
:10256800610060004800dd00e17080000180a1008a
:1025780001007000e0708800460037001e4090009f
:102588000080fb00610060004900dd00f170800000
:102598000190a10001007000f07088001e409000ba
:1025a8000080fb00610060004900dd00e1708000f0
:1025b8000190a10001007000e0708800350037002c
:1025c8001e4090000080fb00610060004a00dd00b2
:1025d800f170800001a0a10001007000f070880077
:1025e8002c0037001e4090000080fb006100600056
:1025f8004b00dd00f170800001b0a1000100700007
:10260800f0708800230037001e4090000080fb0017
:10261800610060004c00dd00f170800001c0a10085
:1026280001007000f07088001a0037001e4090000a
:102638000080fb00610060004d00dd00f17080004b
:1026480001d0a10001007000f0708800110037006f
:102658001e4090000080fb00610060004e00dd001d
:10266800f170800001e0a10001007000f0708800a6
:10267800080037001e4090000080fb004f00dd007e
:10268800f170800001f0a10001007000f070880076
:10269800000000000080fa00000006000200fa00b6
:1026a800004f7800114798001e80fb006101b900b7
:1026b8000080eb008080eb0002004000838048002f
:1026c8004201200003002000820f5000838f580031
:1026d800d0003e0000060100140037001b00370040
:1026e800230037002b003700330037003b0037004a
:1026f800420037004a003700520037005a003700be
:10270800620037006a003700720037007a0037002d
:10271800820037008a003700920037009a0037009d
:10272800a2003700aa003700b20037001e40900010
:102738000080fb0061006000317080000100a10092
:102748000100700030708800b20037001e40900011
:102758000080fb00610060000000400031708000d4
:102768000110a1000100700030708800a900370036
:102778001e4090000080fb00610060004200dd0008
:10278800317080000120a1000100700030708800c5
:10279800a00037001e4090000080fb006100600030
:1027a8004300dd00317080000130a100010070009d
:1027b80030708800970037001e4090000080fb00b2
:1027c800610060004400dd00317080000140a1001c
:1027d80001007000307088008e0037001e409000a5
:1027e8000080fb0061006000117180000100a10001
:1027f8000100700010718800860037001e409000ac
:102808000080fb0061006000000040001171800042
:102818000110a10001007000107188007d003700d0
:102828001e4090000080fb00610060004200dd0057
:10283800117180000120a100010070001071880052
:10284800740037001e4090000080fb0061006000ab
:102858004300dd00117180000130a100010070000b
:10286800107188006b0037001e4090000080fb004c
:10287800610060004400dd00117180000140a1008a
:102888000100700010718800620037001e4090003f
:102898000080fb00610060004500dd0011718000d0
:1028a8000150a10001007000107188005900370024
:1028b8001e4090000080fb00610060004600dd00c3
:1028c800117180000160a100010070001071880082
:1028d800500037001e4090000080fb00610060003f
:1028e8004700dd00117180000170a1000100700037
:1028f80010718800470037001e4090000080fb00e0
:10290800610060004800dd00117180000180a100b5
:1029180001007000107188003e0037001e409000d2
:102928000080fb00610060004900dd00117180003b
:102938000190a10001007000107188003500370077
:102948001e4090000080fb00610060004a00dd002e
:102958001171800001a0a1000100700010718800b1
:102968002c0037001e4090000080fb0061006000d2
:102978004b00dd001171800001b0a1000100700062
:1029880010718800230037001e4090000080fb0073
:10299800610060004c00dd001171800001c0a100e1
:1029a80001007000107188001a0037001e40900066
:1029b8000080fb00610060004d00dd0011718000a7
:1029c80001d0a100010070001071880011003700cb
:1029d8001e4090000080fb00610060004e00dd009a
:1029e8001171800001e0a1000100700010718800e1
:1029f800080037001e4090000080fb004f00dd00fb
:102a08001171800001f0a1000100700010718800b0
:102a1800000000000080fa00000006000200fa0032
:102a2800004f78001e80fb006101b9000080eb00b8
:102a38008080eb00020040008380480042012000b3
:102a480003002000820f5000838f5800e8003e00ea
:102a580000060100140037001d003700260037006b
:102a68002f00370038003700410037004a00370090
:102a7800530037005c003700650037006e003700f0
:102a88007700370080003700890037009200370050
:102a98009b003700a4003700ad003700b6003700b0
:102aa800bf003700c80037002070800000800a008f
:102ab800000000000080fb0000f0a7000000ea0012
:102ac8000000ea004f00de0000407800c90037002f
:102ad8002070800011800a00000000000080fb00c8
:102ae80000f0a7000000ea000000ea004f00de0046
:102af80000407800bf0037002070800022800a0064
:102b0800000000000080fb0000f0a7000000ea00c1
:102b18000000ea004f00de0000407800b5003700f2
:102b28002070800033800a00000000000080fb0055
:102b380000f0a7000000ea000000ea004f00de00f5
:102b480000407800ab0037002070800044800a0005
:102b5800000000000080fb0000f0a7000000ea0071
:102b68000000ea004f00de0000407800a1003700b6
:102b78000071800000800a00000000000080fb0057
:102b880000f0a7000000ea000000ea004f00de00a5
:102b980000407800970037000071800011800a001b
:102ba800000000000080fb0000f0a7000000ea0021
:102bb8000000ea004f00de00004078008d0037007a
:102bc8000071800022800a00000000000080fb00e5
:102bd80000f0a7000000ea000000ea004f00de0055
:102be80000407800830037000071800033800a00bd
:102bf800000000000080fb0000f0a7000000ea00d1
:102c08000000ea004f00de0000407800790037003d
:102c18000071800044800a00000000000080fb0072
:102c280000f0a7000000ea000000ea004f00de0004
:102c3800004078006f0037000071800055800a005e
:102c4800000000000080fb0000f0a7000000ea0080
:102c58000000ea004f00de00004078006500370001
:102c68000071800066800a00000000000080fb0000
:102c780000f0a7000000ea000000ea004f00de00b4
:102c8800004078005b0037000071800077800a0000
:102c9800000000000080fb0000f0a7000000ea0030
:102ca8000000ea004f00de000040780051003700c5
:102cb8000071800088800a00000000000080fb008e
:102cc80000f0a7000000ea000000ea004f00de0064
:102cd80000407800470037000071800099800a00a2
:102ce800000000000080fb0000f0a7000000ea00e0
:102cf8000000ea004f00de00004078003d00370089
:102d080000718000aa800a00000000000080fb001b
:102d180000f0a7000000ea000000ea004f00de0013
:102d2800004078003300370000718000bb800a0043
:102d3800000000000080fb0000f0a7000000ea008f
:102d48000000ea004f00de0000407800290037004c
:102d580000718000cc800a00000000000080fb00a9
:102d680000f0a7000000ea000000ea004f00de00c3
:102d7800004078001f00370000718000dd800a00e5
:102d8800000000000080fb0000f0a7000000ea003f
:102d98000000ea004f00de00004078001500370010
:102da80000718000ee800a00000000000080fb0037
:102db80000f0a7000000ea000000ea004f00de0073
:102dc800004078000b00370000718000ff800a0087
:102dd800000000000080fb0000f0a7000000ea00ef
:102de8000000ea004f00de000040780001003700d4
:102df8000040eb000080fa00000006000200fa0024
:102e0800004f78001e80fb006101b9000080eb00d4
:102e18008080eb00020040008380480042012000cf
:102e280003002000820f5000838f580040003e00ae
:102e3800000601001400370015003700160037009f
:102e48001700370018003700190037001a0037003c
:102e58001b0037001c0037001d0037001e0037001c
:102e68001f003700200037002100370022003700fc
:102e780023003700240037002500370026003700dc
:102e880027003700280037001000200029003700ed
:102e980020002000270037004000200025003700d0
:102ea80080002000230037000001200021003700a7
:102eb800100020001f003700200020001d003700f0
:102ec800400020001b003700800020001900370058
:102ed800000120001700370000022000150037000d
:102ee80000042000130037000008200011003700fc
:102ef800001020000f003700002020000d003700d0
:102f0800004020000b003700008020000900370037
:102f180000002100070037000000220005003700ec
:102f280000002400030037000000280001003700db
:102f38000000eb000080fa00000006000400fa0020
:102f4800004f7800110798001e407800e54f5000a8
:102f580007003e001e4078000004e0000400320034
:102f68004002210011c0b300014878000900370071
:102f78001e407800f54f500006003e001e407800c5
:102f8800e54f5000030036004002210021c0b30085
:102f9800014878001e40780098ff070030818800bb
:102fa8001e009000f900b90040818800408180002f
:102fb8008000eb00d2f6070002a42d00f39723004f
:102fc800e6f6070050818800618188008142800010
:102fd800f0ff28000080600000c0a0008042880048
:102fe8009142800080ff2f00008060000000a00058
:102ff8009042880050002000c04c88009a29ef00b9
:103008009c29ef009e29ef00a229ef00a429ef00d8
:10301800a829ef00aa29ef0040818000604d8800b0
:10302800ae29ef00b029ef00b429ef00b829ef006e
:10303800ba29ef000468a9002468a8000488a90038
:103048002488a8000080fa00000006000000fa00aa
:1030580099e9a8000080fa00000006000000fa00c4
:1030680099e9a9000080fa00000006000200fa00b1
:10307800000f7800f0ff20009e007800808f50003d
:103088000c003e001e0078008000eb009cf6070054
:103098000002be0050818000618180000001be00f6
:1030a8000400be00adf6070074f6070000007800c3
:1030b800a04d88000080fa00000006000000fa0019
:1030c80001428000f0f82f0080806000000320009b
:1030d80001007000004288000421ef00309c2000ad
:1030e800400888000021ef00020007000080fa0075
:1030f800000006000000fa000a0007000028a900e6
:103108002028a80001e1a8000080fa0000000600bd
:103118000000fa0001e1a9002028a9000080fa00b7
:10312800000006000000fa000e30ef001030ef003b
:103138000080fa00000006000200fa00000f780084
:10314800f8ff07000700370070808000e90f500083
:10315800040036000e30ef00808080000000e80098
:1031680080808800808080009e0f5000f6ff390024
:103178000080fa00000006000000fa0011428000fa
:10318800f08f2f00008060000090a000104288009f
:1031980011428000f0ff28000080600000d0a000ed
:1031a8001042880000022000804a88005229ef005f
:1031b8005429ef005629ef005a29ef005c29ef0047
:1031c8006029ef006229ef00701a2600204b880062
:1031d8006629ef006829ef006c29ef007029ef00dd
:1031e8007229ef00020007000080fa0000000600c4
:1031f8000000fa000b00070000c8a90000e8a900b9
:1032080020c8a80020e8a80051e9a8000080fa001a
:10321800000006000000fa0051e9a9000080fa0049
:10322800000006000000fa000000eb009080880013
:10323800440121006000b8006011b800009abe0087
:103248000292be00c40121006000b8006011b800fd
:10325800009abe000292be000080fa00000006003c
:103268000000fa00400121005001be004000be00ed
:103278000080fa00000006000000fa00c0012100ea
:103288005001be004000be000080fa0000000600a9
:103298000000fa006afb070063fb07000000eb0070
:1032a80053fb0700c0c0b300f1f807008040eb00f3
:1032b800c0c0b300b3fb07000100370000000000e6
:1032c80005f707000004e000fcff320011718000e0
:1032d800000420000080600000f0a7000000ea0061
:1032e8000000e9004f00de00004078000080fb008d
:1032f800610060004600dd00117180000160a100de
:103308000100700010718800c0c0b300c6f9070042
:0833180037fb0700eaff370054
:020000040000fa
:10332000001000000a000000800000002e100000c5
:1033300002000000800000000a10000004000000ed
:1033400080000000241000000a000000800000003f
:103350001210000012000000800000000e1000009b
:0c336000040000008000000000000000dd
:020000040000fa
:020000040005f5
:047e0000ffff000080
:020000040000fa
:020000040005f5
:047e2000ffffff0061
:020000040000fa
:020000040005f5
:047e300078ffff00d8
:020000040000fa
:020000040005f5
:047e38003bffff000d
:020000040000fa
:020000040005f5
:047e40006003ff00dc
:020000040000fa
:020000040005f5
:047e4800ffffff0039
:020000040000fa
:020000040005f5
:047e5000deffff0052
:020000040000fa
:020000040005f5
:047e58000000ff0027
:020000040000fa
:020000040005f5
:047e60000000ff001f
:020000040000fa
:020000040005f5
:047e68000000ff0017
:020000040000fa
:020000040005f5
:047e70000000ff000f
:020000040000fa
:020000040005f5
:047e7800ffffff0009
:020000040000fa
:020000040005f5
:047e8000fffcff0004
:020000040000fa
:020000040005f5
:047e8800ffffff00f9
:020000040000fa
:020000040005f5
:047ff800ffffff0088
:020000040000fa
:020000040100f9
:04300000ffffff00cf
:00000001FF
