:020000040000fa
:080000000002040000000000f2
:020000040000fa
:04000800720300007f
:020000040000fa
:04000c00720300007b
:020000040000fa
:040010007203000077
:020000040000fa
:040014007203000073
:020000040000fa
:04001800720300006f
:020000040000fa
:04001c00720300006b
:020000040000fa
:040020007203000067
:020000040000fa
:040024007203000063
:020000040000fa
:04002800720300005f
:020000040000fa
:04002c00fa020000d4
:020000040000fa
:040030007203000057
:020000040000fa
:040034007203000053
:020000040000fa
:04003800720300004f
:020000040000fa
:04003c00720300004b
:020000040000fa
:040040007203000047
:020000040000fa
:0400440014030000a1
:020000040000fa
:04004800720300003f
:020000040000fa
:04004c00720300003b
:020000040000fa
:040050007203000037
:020000040000fa
:040054007203000033
:020000040000fa
:04005800720300002f
:020000040000fa
:04005c00720300002b
:020000040000fa
:040060007203000027
:020000040000fa
:040064007203000023
:020000040000fa
:04006800720300001f
:020000040000fa
:04006c00720300001b
:020000040000fa
:040070007203000017
:020000040000fa
:040074007203000013
:020000040000fa
:04007800720300000f
:020000040000fa
:04007c00720300000b
:020000040000fa
:040080007203000007
:020000040000fa
:040084007203000003
:020000040000fa
:0400880072030000ff
:020000040000fa
:04008c0072030000fb
:020000040000fa
:0400900072030000f7
:020000040000fa
:0400940072030000f3
:020000040000fa
:0400980072030000ef
:020000040000fa
:04009c0072030000eb
:020000040000fa
:0400a00072030000e7
:020000040000fa
:0400a40072030000e3
:020000040000fa
:0400a80072030000df
:020000040000fa
:0400ac0072030000db
:020000040000fa
:0400b00072030000d7
:020000040000fa
:0400b40072030000d3
:020000040000fa
:0400b80072030000cf
:020000040000fa
:0400bc0072030000cb
:020000040000fa
:0400c00072030000c7
:020000040000fa
:0400c40072030000c3
:020000040000fa
:0400c80072030000bf
:020000040000fa
:0400cc0072030000bb
:020000040000fa
:0400d00072030000b7
:020000040000fa
:0400d40072030000b3
:020000040000fa
:0400d80072030000af
:020000040000fa
:0400dc0072030000ab
:020000040000fa
:0400e00072030000a7
:020000040000fa
:0400e40072030000a3
:020000040000fa
:0400e800720300009f
:020000040000fa
:0400ec00720300009b
:020000040000fa
:0400f0007203000097
:020000040000fa
:0400f4007203000093
:020000040000fa
:0400f800720300008f
:020000040000fa
:0400fc00720300008b
:020000040000fa
:040100007203000086
:020000040000fa
:040104007203000082
:020000040000fa
:04010800720300007e
:020000040000fa
:04010c00720300007a
:020000040000fa
:040110007203000076
:020000040000fa
:040114007203000072
:020000040000fa
:04011800720300006e
:020000040000fa
:04011c00720300006a
:020000040000fa
:040120007203000066
:020000040000fa
:040124007203000062
:020000040000fa
:04012800720300005e
:020000040000fa
:04012c00720300005a
:020000040000fa
:040130007203000056
:020000040000fa
:040134007203000052
:020000040000fa
:04013800720300004e
:020000040000fa
:04013c00720300004a
:020000040000fa
:040140007203000046
:020000040000fa
:040144007203000042
:020000040000fa
:04014800720300003e
:020000040000fa
:04014c00720300003a
:020000040000fa
:040150007203000036
:020000040000fa
:040154007203000032
:020000040000fa
:04015800720300002e
:020000040000fa
:04015c00720300002a
:020000040000fa
:040160007203000026
:020000040000fa
:040164007203000022
:020000040000fa
:04016800720300001e
:020000040000fa
:04016c00720300001a
:020000040000fa
:040170007203000016
:020000040000fa
:040174007203000012
:020000040000fa
:04017800720300000e
:020000040000fa
:04017c00720300000a
:020000040000fa
:040180007203000006
:020000040000fa
:040184007203000002
:020000040000fa
:0401880072030000fe
:020000040000fa
:04018c0072030000fa
:020000040000fa
:0401900072030000f6
:020000040000fa
:0401940072030000f2
:020000040000fa
:0401980072030000ee
:020000040000fa
:04019c0072030000ea
:020000040000fa
:0401a00072030000e6
:020000040000fa
:0401a40072030000e2
:020000040000fa
:0401a80072030000de
:020000040000fa
:0401ac0072030000da
:020000040000fa
:0401b00072030000d6
:020000040000fa
:0401b40072030000d2
:020000040000fa
:0401b80072030000ce
:020000040000fa
:0401bc0072030000ca
:020000040000fa
:0401c00072030000c6
:020000040000fa
:0401c40072030000c2
:020000040000fa
:0401c80072030000be
:020000040000fa
:0401cc0072030000ba
:020000040000fa
:0401d00072030000b6
:020000040000fa
:0401d40072030000b2
:020000040000fa
:0401d80072030000ae
:020000040000fa
:0401dc0072030000aa
:020000040000fa
:0401e00072030000a6
:020000040000fa
:0401e40072030000a2
:020000040000fa
:0401e800720300009e
:020000040000fa
:0401ec00720300009a
:020000040000fa
:0401f0007203000096
:020000040000fa
:0401f4007203000092
:020000040000fa
:0401f800720300008e
:020000040000fa
:0401fc00720300008a
:020000040000fa
:040200007203000085
:020000040000fa
:040204007203000081
:020000040000fa
:04020800720300007d
:020000040000fa
:04020c007203000079
:020000040000fa
:040210007203000075
:020000040000fa
:040214007203000071
:020000040000fa
:04021800720300006d
:020000040000fa
:04021c007203000069
:020000040000fa
:040220007203000065
:020000040000fa
:040224007203000061
:020000040000fa
:04022800720300005d
:020000040000fa
:04022c007203000059
:020000040000fa
:040230007203000055
:020000040000fa
:040234007203000051
:020000040000fa
:04023800720300004d
:020000040000fa
:04023c007203000049
:020000040000fa
:040240007203000045
:020000040000fa
:040244007203000041
:020000040000fa
:04024800720300003d
:020000040000fa
:04024c007203000039
:020000040000fa
:040250007203000035
:020000040000fa
:040254007203000031
:020000040000fa
:04025800720300002d
:020000040000fa
:04025c007203000029
:020000040000fa
:040260007203000025
:020000040000fa
:040264007203000021
:020000040000fa
:04026800720300001d
:020000040000fa
:04026c007203000019
:020000040000fa
:040270007203000015
:020000040000fa
:040274007203000011
:020000040000fa
:04027800720300000d
:020000040000fa
:04027c007203000009
:020000040000fa
:040280007203000005
:020000040000fa
:040284007203000001
:020000040000fa
:0402880072030000fd
:020000040000fa
:04028c0072030000f9
:020000040000fa
:0402900072030000f5
:020000040000fa
:0402940072030000f1
:020000040000fa
:0402980072030000ed
:020000040000fa
:04029c0072030000e9
:020000040000fa
:0402a00072030000e5
:020000040000fa
:0402a40072030000e1
:020000040000fa
:0402a80072030000dd
:020000040000fa
:0402ac0072030000d9
:020000040000fa
:0402b00072030000d5
:020000040000fa
:0402b40072030000d1
:020000040000fa
:0402b80072030000cd
:020000040000fa
:0402bc0072030000c9
:020000040000fa
:0402c00072030000c5
:020000040000fa
:0402c40072030000c1
:020000040000fa
:0402c80072030000bd
:020000040000fa
:0402cc0072030000b9
:020000040000fa
:0402d00072030000b5
:020000040000fa
:0402d40072030000b1
:020000040000fa
:0402d80072030000ad
:020000040000fa
:0402dc0072030000a9
:020000040000fa
:0402e00072030000a5
:020000040000fa
:0402e40072030000a1
:020000040000fa
:0402e800720300009d
:020000040000fa
:0402ec007203000099
:020000040000fa
:0402f0007203000095
:020000040000fa
:0402f4007203000091
:020000040000fa
:0402f800720300008d
:020000040000fa
:0402fc007203000089
:020000040000fa
:040300007203000084
:020000040000fa
:040304007203000080
:020000040000fa
:04030800720300007c
:020000040000fa
:04030c007203000078
:020000040000fa
:040310007203000074
:020000040000fa
:040314007203000070
:020000040000fa
:04031800720300006c
:020000040000fa
:04031c007203000068
:020000040000fa
:040320007203000064
:020000040000fa
:040324007203000060
:020000040000fa
:04032800720300005c
:020000040000fa
:04032c007203000058
:020000040000fa
:100400006f0221000eff26000e0188000000000090
:10041000000020000000e000020032000001200087
:100420002002880014000700b00007000000e00070
:1004300003003a00205d2000010020000200370088
:100440000000200001002000810f70000100320038
:100450000f000700000020000000e0000200320052
:10046000000002000000000076040200000000000e
:100470000040da000000fe00200020000000e00044
:1004800002003200100020009001880000000600e9
:10049000a1028800800478000000eb001f003700f4
:1004a000e284440054a0b4009905ba00e2844400f8
:1004b00054a0b4009906ba00e284440054a0b400e9
:1004c0000006eb00476fde00fd07b200ae018800ba
:1004d000636ce10003003a000ad801000000eb0061
:1004e0000e003700606ce10008003a00004deb00a0
:1004f0000a05e800020039003420ec000af0a000f0
:100500008b05e900f9ff3e00040037006168e10057
:10051000010032000086eb000b00070019c7ba008b
:100520001905ba000e04e00003003a000a00e000da
:10053000dbff3a0000000600fe07b200ae028800b2
:100540008a047800f5ff37000cd0a300e20f4d00bd
:100550001c00390089027800354dba000a05e80010
:10056000020039003420ec000af0a0008b05e900fd
:100570000f003200254dba000a05e80002003900dc
:100580003420ec000af0a0008b05e90008003200de
:100590000c00e0000600320015cdba000a05e800a4
:1005a000020039003420ec000af0a0008b05e900bd
:1005b0008984e80054a0b4000b00e000e2ff3a0098
:1005c000000006009902ba00055d78008b05e9007d
:1005d000f7ff3200c82ade00055d78008b05e900d0
:1005e000f3ff32000c00e000f1ff320019ddba0029
:1005f000eeff3700801f78000000fa000028a900f5
:10060000808080000000e80080808800808080007a
:10061000e10f400001003a001030ef000080fa00c6
:100620004f00780000400600809fbe00829fbe0001
:10063000849fbe00869fbe000000fa0000e8a9006b
:10064000600121003002be002003be001000200027
:10065000010020006011b8000000420081804a00c3
:1006600002014b0083814b0064012100009abe000f
:100670000292be00a08080000000e800a0808800f8
:10068000a1808000700c2000808f50000f00360089
:10069000e00121003002be002003be001000200057
:1006a000010020006011b8000000420081804a0073
:1006b00002014b0083814b00e4012100009abe003f
:1006c0000292be000000eb00a08088000080fa00cb
:1006d0004f03be004f02be004f01be004f00be00e0
:1006e000004006000040da000000fe0000000500a7
:020000040000fa
:1006f0000000fa0001428000f0f82f000080600046
:100700000040a000004288000421ef00301f2000bc
:100710004008880020202000000888000028a90048
:100720002028a80001e1a8000080fa0000000600cf
:100730000000fa000028a9002028a80001e1a80074
:100740000080fa00000006000000fa0001e1a900a4
:100750002028a9000080fa00000006000000fa002e
:100760001030ef001230ef000080fa0000000600a9
:100770000200fa00000f7800f8ff070008003700b9
:1007800081808000700c2000808f500004003600b3
:100790001030ef00908080000000e800908088001a
:1007a000908080009e0f5000f5ff3900ebff07009e
:1007b0000080fa00000006000200fa00000f780036
:1007c000e6ff070000000000808080009e0f5000c0
:1007d000fdff3900e1ff07000080fa00000006007d
:1007e0000000fa0011428000f08f2f0000806000ae
:1007f0000090a0001042880011428000f0ff280005
:100800000080600000d0a00010428800000220009c
:10081000804a88005229ef005429ef005629ef0042
:100820005a29ef005c29ef006029ef006229ef00f0
:1008300000352c00204b88006629ef006829ef0066
:100840006c29ef007029ef007229ef0000c8a900a1
:1008500000e8a90020c8a80020e8a8000080fa004d
:10086000000006000000fa000000eb00a0808800f5
:10087000640121006000b8006011b800009abe0059
:100880000292be00e40121006000b8006011b800cf
:10089000009abe000292be0051e9a8000080fa0052
:1008a000000006000000fa0051e9a9000080fa00eb
:1008b000000006000000fa00600121005001be00a7
:1008c0004000be00000078000080fa000000060032
:1008d0000000fa00e00121005001be004000be000f
:1008e000000078000080fa00000006000000fa0016
:1008f000889fbe008a9fbe005b000700f0708000ea
:100900000020a100f0708800f07080000080a1003d
:10091000f0708800e7ff0700cf80de006109b900b2
:1009200004002100009abe000292be00e1ff070011
:10093000cf80de006109b90084002100009abe006a
:100940000292be000100370000000000d9ff07003e
:100950006102b900612bb900000021005001be0006
:100960004000be000020e10001a8e10002b0e1006b
:1009700003b8e100140032001071800064006000d0
:1009800000f0a7000000ea000000e9004f00de00d0
:10099000004078000080fb00610060004200dd0044
:1009a000117180000120a100010070001071880009
:1009b000c0ff0700cf80de006109b90004002100fc
:1009c000009abe000292be00baff07006104b9009f
:1009d000614db900800021005001be004000be0002
:1009e0000002540081825c0002035d0083835d008d
:1009f000703e2000010020006011b8000020e100de
:100a000001a8e10002b0e10003b8e100ceff36002a
:100a100011718000001020000080600000f0a7002d
:100a20000000ea000000e9004f00de00004078000e
:100a30000080fb00610060004800dd001171800053
:100a40000180a100010070001071880099ff07006b
:100a5000cf80de006109b90084002100009abe0049
:100a60000292be00b9ff37000000fa00060007003e
:100a7000160007001eff070059ff070079ff070057
:100a80000080fa00000006000000fa00f0012000db
:100a9000107088000080eb00f0708800062eef00d8
:100aa000222eef000c2eef00282eef000a2eef0072
:100ab000262eef00082eef00242eef00002eef0070
:100ac0001c2eef000080fa00000006000000fa0073
:100ad00010002300307c880020032000407c880028
:100ae0008c2fef0010022000507c8800101028008e
:100af000707c880020032000807c88001002200089
:100b0000907c8800b82fef00ba2fef00be2fef00c7
:100b1000002def00a02fef00a42fef00a62fef0075
:100b2000a82fef00aa2fef00ae2fef00b02fef009d
:100b3000b22fef001200200080072000a109200042
:100b400053f8200080497800814978008249780074
:100b500012002000600420007105200043f82000ee
:100b600080497800814978008249780000000000bf
:100b7000207c8000610060000000e000fcff3a0083
:100b800000000000217c8000000220000080600046
:100b90000000e000fbff3200b5efa9000080fa0082
:040ba000000006004b
:020000040000fa
:100ba400001000001000000080000000141000007d
:100bb400120000008000000010100000040000007b
:080bc4008000000000000000a9
:020000040000fa
:020000040005f5
:047e0000ffff000080
:020000040000fa
:020000040005f5
:047e2000ffffff0061
:020000040000fa
:020000040005f5
:047e300078ffff00d8
:020000040000fa
:020000040005f5
:047e38003bffff000d
:020000040000fa
:020000040005f5
:047e40006003ff00dc
:020000040000fa
:020000040005f5
:047e4800ffffff0039
:020000040000fa
:020000040005f5
:047e5000deffff0052
:020000040000fa
:020000040005f5
:047e58000000ff0027
:020000040000fa
:020000040005f5
:047e60000000ff001f
:020000040000fa
:020000040005f5
:047e68000000ff0017
:020000040000fa
:020000040005f5
:047e70000000ff000f
:020000040000fa
:020000040005f5
:047e7800ffffff0009
:020000040000fa
:020000040005f5
:047e8000fffcff0004
:020000040000fa
:020000040005f5
:047e8800ffffff00f9
:020000040000fa
:020000040005f5
:047ff800ffffff0088
:020000040000fa
:020000040100f9
:04300000ffffff00cf
:00000001FF
